{
  "contractName": "Opal",
  "abi": [
    {
      "inputs": [],
      "stateMutability": "nonpayable",
      "type": "constructor"
    },
    {
      "inputs": [
        {
          "internalType": "uint256",
          "name": "_preimage",
          "type": "uint256"
        }
      ],
      "name": "hashPreimage",
      "outputs": [
        {
          "internalType": "bytes32",
          "name": "",
          "type": "bytes32"
        }
      ],
      "stateMutability": "pure",
      "type": "function",
      "constant": true
    },
    {
      "inputs": [
        {
          "internalType": "bytes32",
          "name": "_hash",
          "type": "bytes32"
        }
      ],
      "name": "deposit",
      "outputs": [],
      "stateMutability": "payable",
      "type": "function",
      "payable": true
    },
    {
      "inputs": [
        {
          "internalType": "uint256",
          "name": "_preimage",
          "type": "uint256"
        },
        {
          "internalType": "address",
          "name": "_to",
          "type": "address"
        }
      ],
      "name": "withdraw",
      "outputs": [],
      "stateMutability": "payable",
      "type": "function",
      "payable": true
    }
  ],
  "bytecode": "0x608060405234801561001057600080fd5b50336000806101000a81548173ffffffffffffffffffffffffffffffffffffffff021916908373ffffffffffffffffffffffffffffffffffffffff1602179055506106d2806100606000396000f3fe6080604052600436106100335760003560e01c8062f714ce1461003857806307a9b52114610054578063b214faa514610091575b600080fd5b610052600480360381019061004d9190610386565b6100ad565b005b34801561006057600080fd5b5061007b600480360381019061007691906103c6565b61025f565b604051610088919061040c565b60405180910390f35b6100ab60048036038101906100a69190610453565b61028f565b005b600060016000846040516020016100c491906104a1565b6040516020818303038152906040528051906020012081526020019081526020016000205490506000811161012e576040517f08c379a000000000000000000000000000000000000000000000000000000000815260040161012590610519565b60405180910390fd5b600061271061270b836101419190610568565b61014b91906105d9565b9050600061271060058461015f9190610568565b61016991906105d9565b90506000600160008760405160200161018291906104a1565b604051602081830303815290604052805190602001208152602001908152602001600020819055508373ffffffffffffffffffffffffffffffffffffffff166108fc839081150290604051600060405180830381858888f193505050501580156101f0573d6000803e3d6000fd5b5060008054906101000a900473ffffffffffffffffffffffffffffffffffffffff1673ffffffffffffffffffffffffffffffffffffffff166108fc829081150290604051600060405180830381858888f19350505050158015610257573d6000803e3d6000fd5b505050505050565b60008160405160200161027291906104a1565b604051602081830303815290604052805190602001209050919050565b600034116102d2576040517f08c379a00000000000000000000000000000000000000000000000000000000081526004016102c99061067c565b60405180910390fd5b34600160008381526020019081526020016000208190555050565b600080fd5b6000819050919050565b610305816102f2565b811461031057600080fd5b50565b600081359050610322816102fc565b92915050565b600073ffffffffffffffffffffffffffffffffffffffff82169050919050565b600061035382610328565b9050919050565b61036381610348565b811461036e57600080fd5b50565b6000813590506103808161035a565b92915050565b6000806040838503121561039d5761039c6102ed565b5b60006103ab85828601610313565b92505060206103bc85828601610371565b9150509250929050565b6000602082840312156103dc576103db6102ed565b5b60006103ea84828501610313565b91505092915050565b6000819050919050565b610406816103f3565b82525050565b600060208201905061042160008301846103fd565b92915050565b610430816103f3565b811461043b57600080fd5b50565b60008135905061044d81610427565b92915050565b600060208284031215610469576104686102ed565b5b60006104778482850161043e565b91505092915050565b6000819050919050565b61049b610496826102f2565b610480565b82525050565b60006104ad828461048a565b60208201915081905092915050565b600082825260208201905092915050565b7f42616c616e6365206973207a65726f0000000000000000000000000000000000600082015250565b6000610503600f836104bc565b915061050e826104cd565b602082019050919050565b60006020820190508181036000830152610532816104f6565b9050919050565b7f4e487b7100000000000000000000000000000000000000000000000000000000600052601160045260246000fd5b6000610573826102f2565b915061057e836102f2565b925082820261058c816102f2565b915082820484148315176105a3576105a2610539565b5b5092915050565b7f4e487b7100000000000000000000000000000000000000000000000000000000600052601260045260246000fd5b60006105e4826102f2565b91506105ef836102f2565b9250826105ff576105fe6105aa565b5b828204905092915050565b7f4d757374206465706f7369742076616c75652067726561746572207468616e2060008201527f7a65726f00000000000000000000000000000000000000000000000000000000602082015250565b60006106666024836104bc565b91506106718261060a565b604082019050919050565b6000602082019050818103600083015261069581610659565b905091905056fea26469706673582212209a3e566817607e4f68be8c84f3ae8bbdc25486bafb7cf20045fbc6ceea9cdc3664736f6c63430008110033",
  "immutableReferences": {},
  "source": "// SPDX-License-Identifier: MIT\npragma solidity ^0.8.0;\n\ncontract Opal {\n    address private owner;\n\n    mapping(bytes32 => uint256) private balances;\n\n    constructor() {\n        owner = msg.sender;\n    }\n\n    function hashPreimage(uint256 _preimage) public pure returns (bytes32) {\n        return keccak256(abi.encodePacked(_preimage));\n    }\n\n    function deposit(bytes32 _hash) public payable {\n        require(msg.value > 0, \"Must deposit value greater than zero\");\n        balances[_hash] = msg.value;\n    }\n\n    function withdraw(uint256 _preimage, address _to) public payable {\n        // get balance from preimage\n        uint256 balance = balances[keccak256(abi.encodePacked(_preimage))];\n        require(balance > 0, \"Balance is zero\");\n        // calculate vaue to send\n        uint256 value = (balance * 9995) / 10000;\n        // calculate fee to send\n        uint256 fee = (balance * 5) / 10000;\n        // zero balance\n        balances[keccak256(abi.encodePacked(_preimage))] = 0;\n        // Send value to account\n        payable(_to).transfer(value);\n        // Send fee to owner\n        payable(owner).transfer(fee);\n    }\n}\n",
  "sourcePath": "/Users/leon/Desktop/opal-sapphire/contracts/Opal.sol",
  "compiler": {
    "name": "solc",
    "version": "0.8.17+commit.8df45f5f.Emscripten.clang"
  },
  "schemaVersion": "3.4.10",
  "updatedAt": "2022-10-02T04:17:22.928Z",
  "networkType": "ethereum",
  "devdoc": {
    "kind": "dev",
    "methods": {},
    "version": 1
  },
  "userdoc": {
    "kind": "user",
    "methods": {},
    "version": 1
  }
}